{
  "contractName": "Voting",
  "abi": [
    {
      "constant": true,
      "inputs": [
        {
          "name": "",
          "type": "bytes32"
        }
      ],
      "name": "votesReceived",
      "outputs": [
        {
          "name": "",
          "type": "uint256"
        }
      ],
      "payable": false,
      "stateMutability": "view",
      "type": "function"
    },
    {
      "constant": true,
      "inputs": [],
      "name": "totalTokens",
      "outputs": [
        {
          "name": "",
          "type": "uint256"
        }
      ],
      "payable": false,
      "stateMutability": "view",
      "type": "function"
    },
    {
      "constant": true,
      "inputs": [],
      "name": "tokenPrice",
      "outputs": [
        {
          "name": "",
          "type": "uint256"
        }
      ],
      "payable": false,
      "stateMutability": "view",
      "type": "function"
    },
    {
      "constant": true,
      "inputs": [
        {
          "name": "",
          "type": "uint256"
        }
      ],
      "name": "candidateList",
      "outputs": [
        {
          "name": "",
          "type": "bytes32"
        }
      ],
      "payable": false,
      "stateMutability": "view",
      "type": "function"
    },
    {
      "constant": true,
      "inputs": [
        {
          "name": "",
          "type": "address"
        }
      ],
      "name": "voterInfo",
      "outputs": [
        {
          "name": "voterAddress",
          "type": "address"
        },
        {
          "name": "tokensBought",
          "type": "uint256"
        }
      ],
      "payable": false,
      "stateMutability": "view",
      "type": "function"
    },
    {
      "constant": true,
      "inputs": [],
      "name": "balanceTokens",
      "outputs": [
        {
          "name": "",
          "type": "uint256"
        }
      ],
      "payable": false,
      "stateMutability": "view",
      "type": "function"
    },
    {
      "inputs": [
        {
          "name": "tokens",
          "type": "uint256"
        },
        {
          "name": "pricePerToken",
          "type": "uint256"
        }
      ],
      "payable": false,
      "stateMutability": "nonpayable",
      "type": "constructor"
    },
    {
      "constant": true,
      "inputs": [],
      "name": "allCandidates",
      "outputs": [
        {
          "name": "",
          "type": "bytes32[]"
        }
      ],
      "payable": false,
      "stateMutability": "view",
      "type": "function"
    },
    {
      "constant": true,
      "inputs": [
        {
          "name": "candidate",
          "type": "bytes32"
        }
      ],
      "name": "totalVotesFor",
      "outputs": [
        {
          "name": "",
          "type": "uint256"
        }
      ],
      "payable": false,
      "stateMutability": "view",
      "type": "function"
    },
    {
      "constant": true,
      "inputs": [],
      "name": "tokensSold",
      "outputs": [
        {
          "name": "",
          "type": "uint256"
        }
      ],
      "payable": false,
      "stateMutability": "view",
      "type": "function"
    },
    {
      "constant": false,
      "inputs": [],
      "name": "buy",
      "outputs": [
        {
          "name": "",
          "type": "uint256"
        }
      ],
      "payable": true,
      "stateMutability": "payable",
      "type": "function"
    },
    {
      "constant": true,
      "inputs": [
        {
          "name": "user",
          "type": "address"
        }
      ],
      "name": "voterDetails",
      "outputs": [
        {
          "name": "",
          "type": "uint256"
        },
        {
          "name": "",
          "type": "uint256[]"
        }
      ],
      "payable": false,
      "stateMutability": "view",
      "type": "function"
    },
    {
      "constant": false,
      "inputs": [
        {
          "name": "account",
          "type": "address"
        }
      ],
      "name": "transferTo",
      "outputs": [],
      "payable": false,
      "stateMutability": "nonpayable",
      "type": "function"
    },
    {
      "constant": false,
      "inputs": [
        {
          "name": "candidate",
          "type": "bytes32"
        },
        {
          "name": "votesInTokens",
          "type": "uint256"
        }
      ],
      "name": "voteForCandidate",
      "outputs": [],
      "payable": false,
      "stateMutability": "nonpayable",
      "type": "function"
    },
    {
      "constant": true,
      "inputs": [
        {
          "name": "candidate",
          "type": "bytes32"
        }
      ],
      "name": "indexOfCandidate",
      "outputs": [
        {
          "name": "",
          "type": "uint256"
        }
      ],
      "payable": false,
      "stateMutability": "view",
      "type": "function"
    }
  ],
  "bytecode": "0x608060405234801561001057600080fd5b50604051604080610e928339810180604052604081101561003057600080fd5b81019080805190602001909291908051906020019092919050505060008060018154018082558091505090600182039060005260206000200160007f45626164000000000000000000000000000000000000000000000000000000009091909150555060008060018154018082558091505090600182039060005260206000200160007f4d696b65000000000000000000000000000000000000000000000000000000009091909150555060008060018154018082558091505090600182039060005260206000200160007f48617373616e0000000000000000000000000000000000000000000000000000909190915055508160018190555081600281905550806003819055505050610d49806101496000396000f3fe6080604052600436106100dd5760003560e01c806381c407151161007f578063b13c744b11610059578063b13c744b146103ce578063cdf58d351461041d578063e4494a0f146104b5578063ecd098b0146104e0576100dd565b806381c40715146102f3578063a03fa7e31461035f578063a6f2ae3a146103b0576100dd565b80636b2dc6b5116100bb5780636b2dc6b5146102095780637021939f1461024e5780637e1c0c091461029d5780637ff9b596146102c8576100dd565b80632f265cf7146100e2578063518ab2a8146101315780635938750d1461015c575b600080fd5b3480156100ee57600080fd5b5061011b6004803603602081101561010557600080fd5b810190808035906020019092919050505061052f565b6040518082815260200191505060405180910390f35b34801561013d57600080fd5b5061014661054c565b6040518082815260200191505060405180910390f35b34801561016857600080fd5b506101ab6004803603602081101561017f57600080fd5b81019080803573ffffffffffffffffffffffffffffffffffffffff16906020019092919050505061055a565b6040518083815260200180602001828103825283818151815260200191508051906020019060200280838360005b838110156101f45780820151818401526020810190506101d9565b50505050905001935050505060405180910390f35b34801561021557600080fd5b5061024c6004803603604081101561022c57600080fd5b81019080803590602001909291908035906020019092919050505061063e565b005b34801561025a57600080fd5b506102876004803603602081101561027157600080fd5b8101908080359060200190929190505050610984565b6040518082815260200191505060405180910390f35b3480156102a957600080fd5b506102b261099c565b6040518082815260200191505060405180910390f35b3480156102d457600080fd5b506102dd6109a2565b6040518082815260200191505060405180910390f35b3480156102ff57600080fd5b506103086109a8565b6040518080602001828103825283818151815260200191508051906020019060200280838360005b8381101561034b578082015181840152602081019050610330565b505050509050019250505060405180910390f35b34801561036b57600080fd5b506103ae6004803603602081101561038257600080fd5b81019080803573ffffffffffffffffffffffffffffffffffffffff169060200190929190505050610a00565b005b6103b8610a61565b6040518082815260200191505060405180910390f35b3480156103da57600080fd5b50610407600480360360208110156103f157600080fd5b8101908080359060200190929190505050610bd2565b6040518082815260200191505060405180910390f35b34801561042957600080fd5b5061046c6004803603602081101561044057600080fd5b81019080803573ffffffffffffffffffffffffffffffffffffffff169060200190929190505050610bf3565b604051808373ffffffffffffffffffffffffffffffffffffffff1673ffffffffffffffffffffffffffffffffffffffff1681526020018281526020019250505060405180910390f35b3480156104c157600080fd5b506104ca610c37565b6040518082815260200191505060405180910390f35b3480156104ec57600080fd5b506105196004803603602081101561050357600080fd5b8101908080359060200190929190505050610c3d565b6040518082815260200191505060405180910390f35b600060046000838152602001908152602001600020549050919050565b600060025460015403905090565b60006060600560008473ffffffffffffffffffffffffffffffffffffffff1673ffffffffffffffffffffffffffffffffffffffff16815260200190815260200160002060010154600560008573ffffffffffffffffffffffffffffffffffffffff1673ffffffffffffffffffffffffffffffffffffffff1681526020019081526020016000206002018080548060200260200160405190810160405280929190818152602001828054801561062e57602002820191906000526020600020905b81548152602001906001019080831161061a575b5050505050905091509150915091565b600061064983610c3d565b90507fffffffffffffffffffffffffffffffffffffffffffffffffffffffffffffffff8114156106e1576040517f08c379a00000000000000000000000000000000000000000000000000000000081526004018080602001828103825260208152602001807f2043616e646964617465206e616d6520646f6573206e6f74204578697374732081525060200191505060405180910390fd5b6000600560003373ffffffffffffffffffffffffffffffffffffffff1673ffffffffffffffffffffffffffffffffffffffff1681526020019081526020016000206002018054905014156107be5760008090505b6000805490508110156107bc57600560003373ffffffffffffffffffffffffffffffffffffffff1673ffffffffffffffffffffffffffffffffffffffff168152602001908152602001600020600201600090806001815401808255809150509060018203906000526020600020016000909192909190915055508080600101915050610735565b505b6000610859600560003373ffffffffffffffffffffffffffffffffffffffff1673ffffffffffffffffffffffffffffffffffffffff16815260200190815260200160002060020180548060200260200160405190810160405280929190818152602001828054801561084f57602002820191906000526020600020905b81548152602001906001019080831161083b575b5050505050610cb1565b600560003373ffffffffffffffffffffffffffffffffffffffff1673ffffffffffffffffffffffffffffffffffffffff16815260200190815260200160002060010154039050828110156108f8576040517f08c379a0000000000000000000000000000000000000000000000000000000008152600401808060200182810382526027815260200180610cf76027913960400191505060405180910390fd5b82600460008681526020019081526020016000206000828254019250508190555082600560003373ffffffffffffffffffffffffffffffffffffffff1673ffffffffffffffffffffffffffffffffffffffff168152602001908152602001600020600201838154811061096757fe5b906000526020600020016000828254019250508190555050505050565b60046020528060005260406000206000915090505481565b60015481565b60035481565b606060008054806020026020016040519081016040528092919081815260200182805480156109f657602002820191906000526020600020905b8154815260200190600101908083116109e2575b5050505050905090565b8073ffffffffffffffffffffffffffffffffffffffff166108fc3073ffffffffffffffffffffffffffffffffffffffff16319081150290604051600060405180830381858888f19350505050158015610a5d573d6000803e3d6000fd5b5050565b6000806003543481610a6f57fe5b049050600254811115610aea576040517f08c379a00000000000000000000000000000000000000000000000000000000081526004018080602001828103825260138152602001807f546f6b656e206e6f7420617661696c61626c650000000000000000000000000081525060200191505060405180910390fd5b33600560003373ffffffffffffffffffffffffffffffffffffffff1673ffffffffffffffffffffffffffffffffffffffff16815260200190815260200160002060000160006101000a81548173ffffffffffffffffffffffffffffffffffffffff021916908373ffffffffffffffffffffffffffffffffffffffff16021790555080600560003373ffffffffffffffffffffffffffffffffffffffff1673ffffffffffffffffffffffffffffffffffffffff16815260200190815260200160002060010160008282540192505081905550806002600082825403925050819055508091505090565b60008181548110610bdf57fe5b906000526020600020016000915090505481565b60056020528060005260406000206000915090508060000160009054906101000a900473ffffffffffffffffffffffffffffffffffffffff16908060010154905082565b60025481565b600080600090505b600080549050811015610c87578260008281548110610c6057fe5b90600052602060002001541415610c7a5780915050610cac565b8080600101915050610c45565b507fffffffffffffffffffffffffffffffffffffffffffffffffffffffffffffffff90505b919050565b6000806000905060008090505b8351811015610cec57838181518110610cd357fe5b6020026020010151820191508080600101915050610cbe565b508091505091905056fe2043616e6e6f742067697665206d6f726520566f746573207468616e20617661696c61626c6520a165627a7a7230582041d6af8eb530cd3e2d57e42cab895b505126e08c91ea1bcc205543b1ffd62c090029",
  "source": "pragma solidity >=0.4.21 <0.6.0;\ncontract Voting {\n\n\n  bytes32[] public candidateList;\n  uint public totalTokens;\n  uint public balanceTokens;\n  uint public tokenPrice;\n  \n  constructor(uint tokens, uint pricePerToken) public {\n    candidateList.push(\"Ebad\");\n    candidateList.push(\"Mike\");\n    candidateList.push(\"Hassan\");\n\n    totalTokens = tokens;\n    balanceTokens = tokens;\n    tokenPrice = pricePerToken;\n  }\n\n   function allCandidates()public view  returns (bytes32[] memory) {\n    return candidateList;\n  }\n//========================================================\n  struct voter {\n    address voterAddress;\n    uint tokensBought;\n    uint[] tokensUsedPerCandidate;\n  }\n  mapping (bytes32 => uint) public votesReceived;\n\n  function totalVotesFor(bytes32 candidate)public view  returns (uint) {\n    return votesReceived[candidate];\n  }\n  function totalTokensUsed(uint[] memory tokensUsedPerCandidate) private pure returns (uint) {\n    uint totalUsedTokens = 0;\n    for(uint i = 0; i < tokensUsedPerCandidate.length; i++) {\n      totalUsedTokens += tokensUsedPerCandidate[i];\n    }\n    return totalUsedTokens;\n  }\n\n  function tokensSold()public  view returns (uint) {\n    return totalTokens - balanceTokens;\n  }\n  //=====================================================\n  mapping (address => voter) public voterInfo;\n\n  function buy()public payable returns (uint) {\n    uint tokensToBuy = msg.value / tokenPrice;\n    require(tokensToBuy <= balanceTokens, \"Token not available\");\n    voterInfo[msg.sender].voterAddress = msg.sender;\n    voterInfo[msg.sender].tokensBought += tokensToBuy;\n    balanceTokens -= tokensToBuy;\n    return tokensToBuy;\n  }\n\n\n  //=====================================\n  function voterDetails(address user)public view  returns (uint, uint[] memory) {\n    return (voterInfo[user].tokensBought, voterInfo[user].tokensUsedPerCandidate);\n  }\n  //===================================\n  function transferTo(address payable account) public {\n    account.transfer(address(this).balance);\n  }\n  //=======================\n  function voteForCandidate(bytes32 candidate, uint votesInTokens) public {\n    uint index = indexOfCandidate(candidate);\n    require(index != uint(-1),\" Candidate name does not Exists \");\n    if (voterInfo[msg.sender].tokensUsedPerCandidate.length == 0) {\n      for(uint i = 0; i < candidateList.length; i++) {\n        voterInfo[msg.sender].tokensUsedPerCandidate.push(0);\n      }\n    }\n    uint availableTokens = voterInfo[msg.sender].tokensBought - totalTokensUsed(voterInfo[msg.sender].tokensUsedPerCandidate);\n    require(availableTokens >= votesInTokens, \" Cannot give more Votes than available \");\n\n    votesReceived[candidate] += votesInTokens;\n\n    // Store how many tokens were used for this candidate\n    voterInfo[msg.sender].tokensUsedPerCandidate[index] += votesInTokens;\n  }\n  \n   function indexOfCandidate(bytes32 candidate) view public returns (uint) {\n    for(uint i = 0; i < candidateList.length; i++) {\n      if (candidateList[i] == candidate) {\n        return i;\n      }\n    }\n    return uint(-1);\n  }\n  //=====================================\n}",
  "sourcePath": "/home/aamir/Desktop/truffle demo backup/voting/contracts/Voting.sol",
  "compiler": {
    "name": "solc",
    "version": "0.5.8+commit.23d335f2.Emscripten.clang"
  },
  "schemaVersion": "3.0.15",
  "updatedAt": "2019-12-04T17:32:57.095Z",
  "devdoc": {
    "methods": {}
  },
  "userdoc": {
    "methods": {}
  }
}